{
  "_format": "hh-sol-artifact-1",
  "contractName": "Session",
  "sourceName": "contracts/Session.sol",
  "abi": [
    {
      "inputs": [
        {
          "internalType": "address",
          "name": "_user",
          "type": "address"
        },
        {
          "internalType": "address payable",
          "name": "_tutor",
          "type": "address"
        },
        {
          "internalType": "string",
          "name": "_query",
          "type": "string"
        },
        {
          "internalType": "uint256",
          "name": "_duration",
          "type": "uint256"
        }
      ],
      "stateMutability": "nonpayable",
      "type": "constructor"
    },
    {
      "anonymous": false,
      "inputs": [
        {
          "indexed": true,
          "internalType": "address",
          "name": "user",
          "type": "address"
        },
        {
          "indexed": true,
          "internalType": "address",
          "name": "tutor",
          "type": "address"
        },
        {
          "indexed": false,
          "internalType": "uint256",
          "name": "amountPaid",
          "type": "uint256"
        }
      ],
      "name": "PaymentReceived",
      "type": "event"
    },
    {
      "anonymous": false,
      "inputs": [
        {
          "indexed": true,
          "internalType": "address",
          "name": "user",
          "type": "address"
        },
        {
          "indexed": true,
          "internalType": "address",
          "name": "tutor",
          "type": "address"
        },
        {
          "indexed": false,
          "internalType": "uint256",
          "name": "duration",
          "type": "uint256"
        },
        {
          "indexed": false,
          "internalType": "uint256",
          "name": "amount",
          "type": "uint256"
        }
      ],
      "name": "SessionCreated",
      "type": "event"
    },
    {
      "inputs": [],
      "name": "amount",
      "outputs": [
        {
          "internalType": "uint256",
          "name": "",
          "type": "uint256"
        }
      ],
      "stateMutability": "view",
      "type": "function"
    },
    {
      "inputs": [],
      "name": "checkBalanceSufficient",
      "outputs": [
        {
          "internalType": "bool",
          "name": "",
          "type": "bool"
        }
      ],
      "stateMutability": "view",
      "type": "function"
    },
    {
      "inputs": [],
      "name": "duration",
      "outputs": [
        {
          "internalType": "uint256",
          "name": "",
          "type": "uint256"
        }
      ],
      "stateMutability": "view",
      "type": "function"
    },
    {
      "inputs": [],
      "name": "makePayment",
      "outputs": [],
      "stateMutability": "payable",
      "type": "function"
    },
    {
      "inputs": [],
      "name": "query",
      "outputs": [
        {
          "internalType": "string",
          "name": "",
          "type": "string"
        }
      ],
      "stateMutability": "view",
      "type": "function"
    },
    {
      "inputs": [],
      "name": "tutor",
      "outputs": [
        {
          "internalType": "address payable",
          "name": "",
          "type": "address"
        }
      ],
      "stateMutability": "view",
      "type": "function"
    },
    {
      "inputs": [],
      "name": "user",
      "outputs": [
        {
          "internalType": "address",
          "name": "",
          "type": "address"
        }
      ],
      "stateMutability": "view",
      "type": "function"
    }
  ],
  "bytecode": "0x60806040523480156200001157600080fd5b50604051620013a1380380620013a1833981810160405281019062000037919062000549565b600073ffffffffffffffffffffffffffffffffffffffff168473ffffffffffffffffffffffffffffffffffffffff1603620000a9576040517f08c379a0000000000000000000000000000000000000000000000000000000008152600401620000a0906200063b565b60405180910390fd5b600073ffffffffffffffffffffffffffffffffffffffff168373ffffffffffffffffffffffffffffffffffffffff16036200011b576040517f08c379a00000000000000000000000000000000000000000000000000000000081526004016200011290620006ad565b60405180910390fd5b600082511162000162576040517f08c379a000000000000000000000000000000000000000000000000000000000815260040162000159906200071f565b60405180910390fd5b60008111620001a8576040517f08c379a00000000000000000000000000000000000000000000000000000000081526004016200019f90620007b7565b60405180910390fd5b836000806101000a81548173ffffffffffffffffffffffffffffffffffffffff021916908373ffffffffffffffffffffffffffffffffffffffff16021790555082600160006101000a81548173ffffffffffffffffffffffffffffffffffffffff021916908373ffffffffffffffffffffffffffffffffffffffff16021790555081600290816200023a919062000a1a565b508060038190555065b5e620f480008162000256919062000b30565b6004819055508273ffffffffffffffffffffffffffffffffffffffff168473ffffffffffffffffffffffffffffffffffffffff167f7df0a1e899ee3257ecc2bec498eeee1a019cec8ed34ebf53ff9cbd5d8d51582183600454604051620002bf92919062000b8c565b60405180910390a35050505062000bb9565b6000604051905090565b600080fd5b600080fd5b600073ffffffffffffffffffffffffffffffffffffffff82169050919050565b60006200031282620002e5565b9050919050565b620003248162000305565b81146200033057600080fd5b50565b600081519050620003448162000319565b92915050565b60006200035782620002e5565b9050919050565b62000369816200034a565b81146200037557600080fd5b50565b60008151905062000389816200035e565b92915050565b600080fd5b600080fd5b6000601f19601f8301169050919050565b7f4e487b7100000000000000000000000000000000000000000000000000000000600052604160045260246000fd5b620003e48262000399565b810181811067ffffffffffffffff82111715620004065762000405620003aa565b5b80604052505050565b60006200041b620002d1565b9050620004298282620003d9565b919050565b600067ffffffffffffffff8211156200044c576200044b620003aa565b5b620004578262000399565b9050602081019050919050565b60005b838110156200048457808201518184015260208101905062000467565b60008484015250505050565b6000620004a7620004a1846200042e565b6200040f565b905082815260208101848484011115620004c657620004c562000394565b5b620004d384828562000464565b509392505050565b600082601f830112620004f357620004f26200038f565b5b81516200050584826020860162000490565b91505092915050565b6000819050919050565b62000523816200050e565b81146200052f57600080fd5b50565b600081519050620005438162000518565b92915050565b60008060008060808587031215620005665762000565620002db565b5b6000620005768782880162000333565b9450506020620005898782880162000378565b935050604085015167ffffffffffffffff811115620005ad57620005ac620002e0565b5b620005bb87828801620004db565b9250506060620005ce8782880162000532565b91505092959194509250565b600082825260208201905092915050565b7f496e76616c696420757365722061646472657373000000000000000000000000600082015250565b600062000623601483620005da565b91506200063082620005eb565b602082019050919050565b60006020820190508181036000830152620006568162000614565b9050919050565b7f496e76616c6964207475746f7220616464726573730000000000000000000000600082015250565b600062000695601583620005da565b9150620006a2826200065d565b602082019050919050565b60006020820190508181036000830152620006c88162000686565b9050919050565b7f51756572792063616e6e6f7420626520656d7074790000000000000000000000600082015250565b600062000707601583620005da565b91506200071482620006cf565b602082019050919050565b600060208201905081810360008301526200073a81620006f8565b9050919050565b7f4475726174696f6e206d7573742062652067726561746572207468616e207a6560008201527f726f000000000000000000000000000000000000000000000000000000000000602082015250565b60006200079f602283620005da565b9150620007ac8262000741565b604082019050919050565b60006020820190508181036000830152620007d28162000790565b9050919050565b600081519050919050565b7f4e487b7100000000000000000000000000000000000000000000000000000000600052602260045260246000fd5b600060028204905060018216806200082c57607f821691505b602082108103620008425762000841620007e4565b5b50919050565b60008190508160005260206000209050919050565b60006020601f8301049050919050565b600082821b905092915050565b600060088302620008ac7fffffffffffffffffffffffffffffffffffffffffffffffffffffffffffffffff826200086d565b620008b886836200086d565b95508019841693508086168417925050509392505050565b6000819050919050565b6000620008fb620008f5620008ef846200050e565b620008d0565b6200050e565b9050919050565b6000819050919050565b6200091783620008da565b6200092f620009268262000902565b8484546200087a565b825550505050565b600090565b6200094662000937565b620009538184846200090c565b505050565b5b818110156200097b576200096f6000826200093c565b60018101905062000959565b5050565b601f821115620009ca57620009948162000848565b6200099f846200085d565b81016020851015620009af578190505b620009c7620009be856200085d565b83018262000958565b50505b505050565b600082821c905092915050565b6000620009ef60001984600802620009cf565b1980831691505092915050565b600062000a0a8383620009dc565b9150826002028217905092915050565b62000a2582620007d9565b67ffffffffffffffff81111562000a415762000a40620003aa565b5b62000a4d825462000813565b62000a5a8282856200097f565b600060209050601f83116001811462000a92576000841562000a7d578287015190505b62000a898582620009fc565b86555062000af9565b601f19841662000aa28662000848565b60005b8281101562000acc5784890151825560018201915060208501945060208101905062000aa5565b8683101562000aec578489015162000ae8601f891682620009dc565b8355505b6001600288020188555050505b505050505050565b7f4e487b7100000000000000000000000000000000000000000000000000000000600052601160045260246000fd5b600062000b3d826200050e565b915062000b4a836200050e565b925082820262000b5a816200050e565b9150828204841483151762000b745762000b7362000b01565b5b5092915050565b62000b86816200050e565b82525050565b600060408201905062000ba3600083018562000b7b565b62000bb2602083018462000b7b565b9392505050565b6107d88062000bc96000396000f3fe6080604052600436106100705760003560e01c806362fe33d21161004e57806362fe33d2146100f6578063aa8c217c14610121578063be01b9ca1461014c578063d8d797001461017757610070565b80630fb5a6b4146100755780632c46b205146100a05780634f8632ba146100cb575b600080fd5b34801561008157600080fd5b5061008a610181565b60405161009791906104a9565b60405180910390f35b3480156100ac57600080fd5b506100b5610187565b6040516100c29190610554565b60405180910390f35b3480156100d757600080fd5b506100e0610215565b6040516100ed91906105b7565b60405180910390f35b34801561010257600080fd5b5061010b610239565b60405161011891906105f3565b60405180910390f35b34801561012d57600080fd5b5061013661025f565b60405161014391906104a9565b60405180910390f35b34801561015857600080fd5b50610161610265565b60405161016e9190610629565b60405180910390f35b61017f6102a9565b005b60035481565b6002805461019490610673565b80601f01602080910402602001604051908101604052809291908181526020018280546101c090610673565b801561020d5780601f106101e25761010080835404028352916020019161020d565b820191906000526020600020905b8154815290600101906020018083116101f057829003601f168201915b505050505081565b60008054906101000a900473ffffffffffffffffffffffffffffffffffffffff1681565b600160009054906101000a900473ffffffffffffffffffffffffffffffffffffffff1681565b60045481565b600060045460008054906101000a900473ffffffffffffffffffffffffffffffffffffffff1673ffffffffffffffffffffffffffffffffffffffff16311015905090565b60008054906101000a900473ffffffffffffffffffffffffffffffffffffffff1673ffffffffffffffffffffffffffffffffffffffff163373ffffffffffffffffffffffffffffffffffffffff1614610337576040517f08c379a000000000000000000000000000000000000000000000000000000000815260040161032e90610716565b60405180910390fd5b60045434101561037c576040517f08c379a000000000000000000000000000000000000000000000000000000000815260040161037390610782565b60405180910390fd5b600160009054906101000a900473ffffffffffffffffffffffffffffffffffffffff1673ffffffffffffffffffffffffffffffffffffffff166108fc6004549081150290604051600060405180830381858888f193505050501580156103e6573d6000803e3d6000fd5b50600160009054906101000a900473ffffffffffffffffffffffffffffffffffffffff1673ffffffffffffffffffffffffffffffffffffffff1660008054906101000a900473ffffffffffffffffffffffffffffffffffffffff1673ffffffffffffffffffffffffffffffffffffffff167f45fdc265dc29885b9a485766b03e70978440d38c7c328ee0a14fa40c76c6af543460405161048691906104a9565b60405180910390a3565b6000819050919050565b6104a381610490565b82525050565b60006020820190506104be600083018461049a565b92915050565b600081519050919050565b600082825260208201905092915050565b60005b838110156104fe5780820151818401526020810190506104e3565b60008484015250505050565b6000601f19601f8301169050919050565b6000610526826104c4565b61053081856104cf565b93506105408185602086016104e0565b6105498161050a565b840191505092915050565b6000602082019050818103600083015261056e818461051b565b905092915050565b600073ffffffffffffffffffffffffffffffffffffffff82169050919050565b60006105a182610576565b9050919050565b6105b181610596565b82525050565b60006020820190506105cc60008301846105a8565b92915050565b60006105dd82610576565b9050919050565b6105ed816105d2565b82525050565b600060208201905061060860008301846105e4565b92915050565b60008115159050919050565b6106238161060e565b82525050565b600060208201905061063e600083018461061a565b92915050565b7f4e487b7100000000000000000000000000000000000000000000000000000000600052602260045260246000fd5b6000600282049050600182168061068b57607f821691505b60208210810361069e5761069d610644565b5b50919050565b7f4f6e6c792074686520757365722063616e206d616b6520746865207061796d6560008201527f6e74000000000000000000000000000000000000000000000000000000000000602082015250565b60006107006022836104cf565b915061070b826106a4565b604082019050919050565b6000602082019050818103600083015261072f816106f3565b9050919050565b7f496e73756666696369656e742045746865722073656e74000000000000000000600082015250565b600061076c6017836104cf565b915061077782610736565b602082019050919050565b6000602082019050818103600083015261079b8161075f565b905091905056fea2646970667358221220e944867e7e8a84a1a73cb1bdf0523988bffce0eb7929565eedc489b1aa9c69b964736f6c63430008130033",
  "linkReferences": {},
  "deployedLinkReferences": {}
}