{
  "_format": "hh-sol-artifact-1",
  "contractName": "SessionFactory",
  "sourceName": "contracts/Session.sol",
  "abi": [
    {
      "anonymous": false,
      "inputs": [
        {
          "indexed": false,
          "internalType": "address",
          "name": "sessionAddress",
          "type": "address"
        },
        {
          "indexed": true,
          "internalType": "address",
          "name": "user",
          "type": "address"
        },
        {
          "indexed": true,
          "internalType": "address",
          "name": "tutor",
          "type": "address"
        },
        {
          "indexed": false,
          "internalType": "string",
          "name": "query",
          "type": "string"
        },
        {
          "indexed": false,
          "internalType": "uint256",
          "name": "duration",
          "type": "uint256"
        },
        {
          "indexed": false,
          "internalType": "uint256",
          "name": "amount",
          "type": "uint256"
        },
        {
          "indexed": false,
          "internalType": "string",
          "name": "fileURI",
          "type": "string"
        }
      ],
      "name": "sessionCreated",
      "type": "event"
    },
    {
      "inputs": [
        {
          "internalType": "address payable",
          "name": "sessionTutor",
          "type": "address"
        },
        {
          "internalType": "string",
          "name": "sessionQuery",
          "type": "string"
        },
        {
          "internalType": "uint256",
          "name": "sessionDuration",
          "type": "uint256"
        },
        {
          "internalType": "uint256",
          "name": "sessionAmount",
          "type": "uint256"
        },
        {
          "internalType": "string",
          "name": "sessionFileURI",
          "type": "string"
        }
      ],
      "name": "createSession",
      "outputs": [
        {
          "internalType": "address",
          "name": "",
          "type": "address"
        }
      ],
      "stateMutability": "nonpayable",
      "type": "function"
    },
    {
      "inputs": [
        {
          "internalType": "uint256",
          "name": "",
          "type": "uint256"
        }
      ],
      "name": "deployedSessions",
      "outputs": [
        {
          "internalType": "address",
          "name": "",
          "type": "address"
        }
      ],
      "stateMutability": "view",
      "type": "function"
    }
  ],
  "bytecode": "0x608060405234801561001057600080fd5b50611685806100206000396000f3fe60806040523480156200001157600080fd5b50600436106200003a5760003560e01c806332604459146200003f578063a94125e71462000075575b600080fd5b6200005d60048036038101906200005791906200026f565b620000ab565b6040516200006c9190620002e6565b60405180910390f35b6200009360048036038101906200008d9190620004aa565b620000eb565b604051620000a29190620002e6565b60405180910390f35b60008181548110620000bc57600080fd5b906000526020600020016000915054906101000a900473ffffffffffffffffffffffffffffffffffffffff1681565b600080338787878787604051620001029062000212565b62000113969594939291906200061b565b604051809103906000f08015801562000130573d6000803e3d6000fd5b5090506000819080600181540180825580915050600190039060005260206000200160009091909190916101000a81548173ffffffffffffffffffffffffffffffffffffffff021916908373ffffffffffffffffffffffffffffffffffffffff1602179055508673ffffffffffffffffffffffffffffffffffffffff163373ffffffffffffffffffffffffffffffffffffffff167f2e0e413b5cb0806c06865dd0df6af9148b91b33907f830221e7a11742e2e382d8389898989604051620001fd95949392919062000696565b60405180910390a38091505095945050505050565b610f4e806200070283390190565b6000604051905090565b600080fd5b600080fd5b6000819050919050565b620002498162000234565b81146200025557600080fd5b50565b60008135905062000269816200023e565b92915050565b6000602082840312156200028857620002876200022a565b5b6000620002988482850162000258565b91505092915050565b600073ffffffffffffffffffffffffffffffffffffffff82169050919050565b6000620002ce82620002a1565b9050919050565b620002e081620002c1565b82525050565b6000602082019050620002fd6000830184620002d5565b92915050565b60006200031082620002a1565b9050919050565b620003228162000303565b81146200032e57600080fd5b50565b600081359050620003428162000317565b92915050565b600080fd5b600080fd5b6000601f19601f8301169050919050565b7f4e487b7100000000000000000000000000000000000000000000000000000000600052604160045260246000fd5b6200039d8262000352565b810181811067ffffffffffffffff82111715620003bf57620003be62000363565b5b80604052505050565b6000620003d462000220565b9050620003e2828262000392565b919050565b600067ffffffffffffffff82111562000405576200040462000363565b5b620004108262000352565b9050602081019050919050565b82818337600083830152505050565b6000620004436200043d84620003e7565b620003c8565b9050828152602081018484840111156200046257620004616200034d565b5b6200046f8482856200041d565b509392505050565b600082601f8301126200048f576200048e62000348565b5b8135620004a18482602086016200042c565b91505092915050565b600080600080600060a08688031215620004c957620004c86200022a565b5b6000620004d98882890162000331565b955050602086013567ffffffffffffffff811115620004fd57620004fc6200022f565b5b6200050b8882890162000477565b94505060406200051e8882890162000258565b9350506060620005318882890162000258565b925050608086013567ffffffffffffffff8111156200055557620005546200022f565b5b620005638882890162000477565b9150509295509295909350565b6200057b8162000303565b82525050565b600081519050919050565b600082825260208201905092915050565b60005b83811015620005bd578082015181840152602081019050620005a0565b60008484015250505050565b6000620005d68262000581565b620005e281856200058c565b9350620005f48185602086016200059d565b620005ff8162000352565b840191505092915050565b620006158162000234565b82525050565b600060c082019050620006326000830189620002d5565b62000641602083018862000570565b8181036040830152620006558187620005c9565b90506200066660608301866200060a565b6200067560808301856200060a565b81810360a0830152620006898184620005c9565b9050979650505050505050565b600060a082019050620006ad6000830188620002d5565b8181036020830152620006c18187620005c9565b9050620006d260408301866200060a565b620006e160608301856200060a565b8181036080830152620006f58184620005c9565b9050969550505050505056fe60806040523480156200001157600080fd5b5060405162000f4e38038062000f4e83398181016040528101906200003791906200036e565b856000806101000a81548173ffffffffffffffffffffffffffffffffffffffff021916908373ffffffffffffffffffffffffffffffffffffffff16021790555084600160006101000a81548173ffffffffffffffffffffffffffffffffffffffff021916908373ffffffffffffffffffffffffffffffffffffffff1602179055508360029081620000c9919062000689565b5082600381905550816004819055508060059081620000e9919062000689565b5050505050505062000770565b6000604051905090565b600080fd5b600080fd5b600073ffffffffffffffffffffffffffffffffffffffff82169050919050565b600062000137826200010a565b9050919050565b62000149816200012a565b81146200015557600080fd5b50565b60008151905062000169816200013e565b92915050565b60006200017c826200010a565b9050919050565b6200018e816200016f565b81146200019a57600080fd5b50565b600081519050620001ae8162000183565b92915050565b600080fd5b600080fd5b6000601f19601f8301169050919050565b7f4e487b7100000000000000000000000000000000000000000000000000000000600052604160045260246000fd5b6200020982620001be565b810181811067ffffffffffffffff821117156200022b576200022a620001cf565b5b80604052505050565b600062000240620000f6565b90506200024e8282620001fe565b919050565b600067ffffffffffffffff821115620002715762000270620001cf565b5b6200027c82620001be565b9050602081019050919050565b60005b83811015620002a95780820151818401526020810190506200028c565b60008484015250505050565b6000620002cc620002c68462000253565b62000234565b905082815260208101848484011115620002eb57620002ea620001b9565b5b620002f884828562000289565b509392505050565b600082601f830112620003185762000317620001b4565b5b81516200032a848260208601620002b5565b91505092915050565b6000819050919050565b620003488162000333565b81146200035457600080fd5b50565b60008151905062000368816200033d565b92915050565b60008060008060008060c087890312156200038e576200038d62000100565b5b60006200039e89828a0162000158565b9650506020620003b189828a016200019d565b955050604087015167ffffffffffffffff811115620003d557620003d462000105565b5b620003e389828a0162000300565b9450506060620003f689828a0162000357565b93505060806200040989828a0162000357565b92505060a087015167ffffffffffffffff8111156200042d576200042c62000105565b5b6200043b89828a0162000300565b9150509295509295509295565b600081519050919050565b7f4e487b7100000000000000000000000000000000000000000000000000000000600052602260045260246000fd5b600060028204905060018216806200049b57607f821691505b602082108103620004b157620004b062000453565b5b50919050565b60008190508160005260206000209050919050565b60006020601f8301049050919050565b600082821b905092915050565b6000600883026200051b7fffffffffffffffffffffffffffffffffffffffffffffffffffffffffffffffff82620004dc565b620005278683620004dc565b95508019841693508086168417925050509392505050565b6000819050919050565b60006200056a620005646200055e8462000333565b6200053f565b62000333565b9050919050565b6000819050919050565b620005868362000549565b6200059e620005958262000571565b848454620004e9565b825550505050565b600090565b620005b5620005a6565b620005c28184846200057b565b505050565b5b81811015620005ea57620005de600082620005ab565b600181019050620005c8565b5050565b601f82111562000639576200060381620004b7565b6200060e84620004cc565b810160208510156200061e578190505b620006366200062d85620004cc565b830182620005c7565b50505b505050565b600082821c905092915050565b60006200065e600019846008026200063e565b1980831691505092915050565b60006200067983836200064b565b9150826002028217905092915050565b620006948262000448565b67ffffffffffffffff811115620006b057620006af620001cf565b5b620006bc825462000482565b620006c9828285620005ee565b600060209050601f831160018114620007015760008415620006ec578287015190505b620006f885826200066b565b86555062000768565b601f1984166200071186620004b7565b60005b828110156200073b5784890151825560018201915060208501945060208101905062000714565b868310156200075b578489015162000757601f8916826200064b565b8355505b6001600288020188555050505b505050505050565b6107ce80620007806000396000f3fe6080604052600436106100705760003560e01c80634f8632ba1161004e5780634f8632ba146100f657806362fe33d214610121578063aa8c217c1461014c578063d8d797001461017757610070565b80630fb5a6b4146100755780631117ce5e146100a05780632c46b205146100cb575b600080fd5b34801561008157600080fd5b5061008a610181565b60405161009791906104d5565b60405180910390f35b3480156100ac57600080fd5b506100b5610187565b6040516100c29190610580565b60405180910390f35b3480156100d757600080fd5b506100e0610215565b6040516100ed9190610580565b60405180910390f35b34801561010257600080fd5b5061010b6102a3565b60405161011891906105e3565b60405180910390f35b34801561012d57600080fd5b506101366102c7565b604051610143919061061f565b60405180910390f35b34801561015857600080fd5b506101616102ed565b60405161016e91906104d5565b60405180910390f35b61017f6102f3565b005b60035481565b6005805461019490610669565b80601f01602080910402602001604051908101604052809291908181526020018280546101c090610669565b801561020d5780601f106101e25761010080835404028352916020019161020d565b820191906000526020600020905b8154815290600101906020018083116101f057829003601f168201915b505050505081565b6002805461022290610669565b80601f016020809104026020016040519081016040528092919081815260200182805461024e90610669565b801561029b5780601f106102705761010080835404028352916020019161029b565b820191906000526020600020905b81548152906001019060200180831161027e57829003601f168201915b505050505081565b60008054906101000a900473ffffffffffffffffffffffffffffffffffffffff1681565b600160009054906101000a900473ffffffffffffffffffffffffffffffffffffffff1681565b60045481565b60008054906101000a900473ffffffffffffffffffffffffffffffffffffffff1673ffffffffffffffffffffffffffffffffffffffff163373ffffffffffffffffffffffffffffffffffffffff1614610381576040517f08c379a00000000000000000000000000000000000000000000000000000000081526004016103789061070c565b60405180910390fd5b6004543410156103c6576040517f08c379a00000000000000000000000000000000000000000000000000000000081526004016103bd90610778565b60405180910390fd5b600160009054906101000a900473ffffffffffffffffffffffffffffffffffffffff1673ffffffffffffffffffffffffffffffffffffffff166108fc6004549081150290604051600060405180830381858888f19350505050158015610430573d6000803e3d6000fd5b50600160009054906101000a900473ffffffffffffffffffffffffffffffffffffffff1673ffffffffffffffffffffffffffffffffffffffff163373ffffffffffffffffffffffffffffffffffffffff167f99b23dc3253b43e3b244d7fc928abf19b75b3776d7a3725d9691bc53b94baa5b6004546040516104b291906104d5565b60405180910390a3565b6000819050919050565b6104cf816104bc565b82525050565b60006020820190506104ea60008301846104c6565b92915050565b600081519050919050565b600082825260208201905092915050565b60005b8381101561052a57808201518184015260208101905061050f565b60008484015250505050565b6000601f19601f8301169050919050565b6000610552826104f0565b61055c81856104fb565b935061056c81856020860161050c565b61057581610536565b840191505092915050565b6000602082019050818103600083015261059a8184610547565b905092915050565b600073ffffffffffffffffffffffffffffffffffffffff82169050919050565b60006105cd826105a2565b9050919050565b6105dd816105c2565b82525050565b60006020820190506105f860008301846105d4565b92915050565b6000610609826105a2565b9050919050565b610619816105fe565b82525050565b60006020820190506106346000830184610610565b92915050565b7f4e487b7100000000000000000000000000000000000000000000000000000000600052602260045260246000fd5b6000600282049050600182168061068157607f821691505b6020821081036106945761069361063a565b5b50919050565b7f4f6e6c792074686520757365722063616e206d616b6520746865207061796d6560008201527f6e74000000000000000000000000000000000000000000000000000000000000602082015250565b60006106f66022836104fb565b91506107018261069a565b604082019050919050565b60006020820190508181036000830152610725816106e9565b9050919050565b7f496e73756666696369656e742045746865722073656e74000000000000000000600082015250565b60006107626017836104fb565b915061076d8261072c565b602082019050919050565b6000602082019050818103600083015261079181610755565b905091905056fea26469706673582212201b2666cf7b1db92e925b7c2631be6ba59da0b764235642fa172fca9c85ba246d64736f6c63430008130033a26469706673582212208056d9a04abe451cca9831e8103acd6d5cf3a80f9502f193e7c052a455874a6664736f6c63430008130033",
  "linkReferences": {},
  "deployedLinkReferences": {}
}