{
  "_format": "hh-sol-artifact-1",
  "contractName": "SessionFactory",
  "sourceName": "contracts/Session.sol",
  "abi": [
    {
      "inputs": [],
      "stateMutability": "nonpayable",
      "type": "constructor"
    },
    {
      "anonymous": false,
      "inputs": [
        {
          "indexed": false,
          "internalType": "uint256",
          "name": "id",
          "type": "uint256"
        }
      ],
      "name": "SessionCreated",
      "type": "event"
    },
    {
      "anonymous": false,
      "inputs": [
        {
          "indexed": false,
          "internalType": "uint256",
          "name": "id",
          "type": "uint256"
        },
        {
          "indexed": true,
          "internalType": "address",
          "name": "user",
          "type": "address"
        },
        {
          "indexed": true,
          "internalType": "address",
          "name": "tutor",
          "type": "address"
        },
        {
          "indexed": false,
          "internalType": "string",
          "name": "query",
          "type": "string"
        },
        {
          "indexed": false,
          "internalType": "uint256",
          "name": "duration",
          "type": "uint256"
        },
        {
          "indexed": false,
          "internalType": "uint256",
          "name": "amount",
          "type": "uint256"
        },
        {
          "indexed": false,
          "internalType": "string",
          "name": "fileURI",
          "type": "string"
        }
      ],
      "name": "SessionEvent",
      "type": "event"
    },
    {
      "anonymous": false,
      "inputs": [
        {
          "indexed": false,
          "internalType": "uint256",
          "name": "id",
          "type": "uint256"
        },
        {
          "indexed": true,
          "internalType": "address",
          "name": "user",
          "type": "address"
        },
        {
          "indexed": true,
          "internalType": "address",
          "name": "tutor",
          "type": "address"
        },
        {
          "indexed": false,
          "internalType": "string",
          "name": "query",
          "type": "string"
        },
        {
          "indexed": false,
          "internalType": "uint256",
          "name": "duration",
          "type": "uint256"
        },
        {
          "indexed": false,
          "internalType": "uint256",
          "name": "amount",
          "type": "uint256"
        },
        {
          "indexed": false,
          "internalType": "string",
          "name": "fileURI",
          "type": "string"
        }
      ],
      "name": "SessionRetrieved",
      "type": "event"
    },
    {
      "inputs": [
        {
          "internalType": "address payable",
          "name": "sessionTutor",
          "type": "address"
        },
        {
          "internalType": "string",
          "name": "sessionQuery",
          "type": "string"
        },
        {
          "internalType": "uint256",
          "name": "sessionDuration",
          "type": "uint256"
        },
        {
          "internalType": "uint256",
          "name": "sessionAmount",
          "type": "uint256"
        },
        {
          "internalType": "string",
          "name": "sessionFileURI",
          "type": "string"
        }
      ],
      "name": "createSession",
      "outputs": [],
      "stateMutability": "nonpayable",
      "type": "function"
    },
    {
      "inputs": [
        {
          "internalType": "uint256",
          "name": "sessionId",
          "type": "uint256"
        }
      ],
      "name": "makePayment",
      "outputs": [],
      "stateMutability": "payable",
      "type": "function"
    },
    {
      "inputs": [
        {
          "internalType": "address",
          "name": "wallet",
          "type": "address"
        }
      ],
      "name": "returnSessions",
      "outputs": [
        {
          "components": [
            {
              "internalType": "uint256",
              "name": "id",
              "type": "uint256"
            },
            {
              "internalType": "address",
              "name": "user",
              "type": "address"
            },
            {
              "internalType": "address payable",
              "name": "tutor",
              "type": "address"
            },
            {
              "internalType": "string",
              "name": "query",
              "type": "string"
            },
            {
              "internalType": "uint256",
              "name": "duration",
              "type": "uint256"
            },
            {
              "internalType": "uint256",
              "name": "amount",
              "type": "uint256"
            },
            {
              "internalType": "string",
              "name": "fileURI",
              "type": "string"
            },
            {
              "internalType": "bool",
              "name": "paid",
              "type": "bool"
            }
          ],
          "internalType": "struct SessionFactory.Session[]",
          "name": "",
          "type": "tuple[]"
        }
      ],
      "stateMutability": "nonpayable",
      "type": "function"
    },
    {
      "inputs": [],
      "name": "sessionCounter",
      "outputs": [
        {
          "internalType": "uint256",
          "name": "",
          "type": "uint256"
        }
      ],
      "stateMutability": "view",
      "type": "function"
    },
    {
      "inputs": [
        {
          "internalType": "address",
          "name": "",
          "type": "address"
        },
        {
          "internalType": "uint256",
          "name": "",
          "type": "uint256"
        }
      ],
      "name": "sessions",
      "outputs": [
        {
          "internalType": "uint256",
          "name": "id",
          "type": "uint256"
        },
        {
          "internalType": "address",
          "name": "user",
          "type": "address"
        },
        {
          "internalType": "address payable",
          "name": "tutor",
          "type": "address"
        },
        {
          "internalType": "string",
          "name": "query",
          "type": "string"
        },
        {
          "internalType": "uint256",
          "name": "duration",
          "type": "uint256"
        },
        {
          "internalType": "uint256",
          "name": "amount",
          "type": "uint256"
        },
        {
          "internalType": "string",
          "name": "fileURI",
          "type": "string"
        },
        {
          "internalType": "bool",
          "name": "paid",
          "type": "bool"
        }
      ],
      "stateMutability": "view",
      "type": "function"
    }
  ],
  "bytecode": "0x608060405234801561001057600080fd5b5060008081905550611a52806100276000396000f3fe60806040526004361061004a5760003560e01c80635114cb521461004f578063a0c3ba1a1461006b578063a94125e7146100af578063cc64e2af146100d8578063fb0105db14610103575b600080fd5b61006960048036038101906100649190610d2a565b610140565b005b34801561007757600080fd5b50610092600480360381019061008d9190610db5565b61034f565b6040516100a6989796959493929190610edf565b60405180910390f35b3480156100bb57600080fd5b506100d660048036038101906100d191906110cc565b610501565b005b3480156100e457600080fd5b506100ed61074b565b6040516100fa919061117f565b60405180910390f35b34801561010f57600080fd5b5061012a6004803603810190610125919061119a565b610751565b60405161013791906113c6565b60405180910390f35b6000600160003373ffffffffffffffffffffffffffffffffffffffff1673ffffffffffffffffffffffffffffffffffffffff168152602001908152602001600020600083815260200190815260200160002090508060010160009054906101000a900473ffffffffffffffffffffffffffffffffffffffff1673ffffffffffffffffffffffffffffffffffffffff163373ffffffffffffffffffffffffffffffffffffffff1614610226576040517f08c379a000000000000000000000000000000000000000000000000000000000815260040161021d9061145a565b60405180910390fd5b806005015434101561026d576040517f08c379a0000000000000000000000000000000000000000000000000000000008152600401610264906114c6565b60405180910390fd5b8060070160009054906101000a900460ff16156102bf576040517f08c379a00000000000000000000000000000000000000000000000000000000081526004016102b690611532565b60405180910390fd5b8060020160009054906101000a900473ffffffffffffffffffffffffffffffffffffffff1673ffffffffffffffffffffffffffffffffffffffff166108fc82600501549081150290604051600060405180830381858888f1935050505015801561032d573d6000803e3d6000fd5b5060018160070160006101000a81548160ff0219169083151502179055505050565b6001602052816000526040600020602052806000526040600020600091509150508060000154908060010160009054906101000a900473ffffffffffffffffffffffffffffffffffffffff16908060020160009054906101000a900473ffffffffffffffffffffffffffffffffffffffff16908060030180546103d190611581565b80601f01602080910402602001604051908101604052809291908181526020018280546103fd90611581565b801561044a5780601f1061041f5761010080835404028352916020019161044a565b820191906000526020600020905b81548152906001019060200180831161042d57829003601f168201915b50505050509080600401549080600501549080600601805461046b90611581565b80601f016020809104026020016040519081016040528092919081815260200182805461049790611581565b80156104e45780601f106104b9576101008083540402835291602001916104e4565b820191906000526020600020905b8154815290600101906020018083116104c757829003601f168201915b5050505050908060070160009054906101000a900460ff16905088565b600080815480929190610513906115e1565b9190505550600060405180610100016040528060005481526020013373ffffffffffffffffffffffffffffffffffffffff1681526020018773ffffffffffffffffffffffffffffffffffffffff16815260200186815260200185815260200184815260200183815260200160001515815250905080600160003373ffffffffffffffffffffffffffffffffffffffff1673ffffffffffffffffffffffffffffffffffffffff1681526020019081526020016000206000805481526020019081526020016000206000820151816000015560208201518160010160006101000a81548173ffffffffffffffffffffffffffffffffffffffff021916908373ffffffffffffffffffffffffffffffffffffffff16021790555060408201518160020160006101000a81548173ffffffffffffffffffffffffffffffffffffffff021916908373ffffffffffffffffffffffffffffffffffffffff160217905550606082015181600301908161068691906117d5565b506080820151816004015560a0820151816005015560c08201518160060190816106b091906117d5565b5060e08201518160070160006101000a81548160ff0219169083151502179055509050508573ffffffffffffffffffffffffffffffffffffffff163373ffffffffffffffffffffffffffffffffffffffff167f4485fb2d095a8320647fd5eb870d00e92a6ac7a347146c0f768a9d8a65ee4e096000548888888860405161073b9594939291906118a7565b60405180910390a3505050505050565b60005481565b6060600080600190505b600054811161082c578373ffffffffffffffffffffffffffffffffffffffff16600160008673ffffffffffffffffffffffffffffffffffffffff1673ffffffffffffffffffffffffffffffffffffffff168152602001908152602001600020600083815260200190815260200160002060010160009054906101000a900473ffffffffffffffffffffffffffffffffffffffff1673ffffffffffffffffffffffffffffffffffffffff1603610819578180610815906115e1565b9250505b8080610824906115e1565b91505061075b565b5060008167ffffffffffffffff81111561084957610848610fa1565b5b60405190808252806020026020018201604052801561088257816020015b61086f610c6d565b8152602001906001900390816108675790505b509050600091506000600190505b6000548111610c62576000600160008773ffffffffffffffffffffffffffffffffffffffff1673ffffffffffffffffffffffffffffffffffffffff168152602001908152602001600020600083815260200190815260200160002090508573ffffffffffffffffffffffffffffffffffffffff168160010160009054906101000a900473ffffffffffffffffffffffffffffffffffffffff1673ffffffffffffffffffffffffffffffffffffffff1603610c4e578060405180610100016040529081600082015481526020016001820160009054906101000a900473ffffffffffffffffffffffffffffffffffffffff1673ffffffffffffffffffffffffffffffffffffffff1673ffffffffffffffffffffffffffffffffffffffff1681526020016002820160009054906101000a900473ffffffffffffffffffffffffffffffffffffffff1673ffffffffffffffffffffffffffffffffffffffff1673ffffffffffffffffffffffffffffffffffffffff168152602001600382018054610a1790611581565b80601f0160208091040260200160405190810160405280929190818152602001828054610a4390611581565b8015610a905780601f10610a6557610100808354040283529160200191610a90565b820191906000526020600020905b815481529060010190602001808311610a7357829003601f168201915b505050505081526020016004820154815260200160058201548152602001600682018054610abd90611581565b80601f0160208091040260200160405190810160405280929190818152602001828054610ae990611581565b8015610b365780601f10610b0b57610100808354040283529160200191610b36565b820191906000526020600020905b815481529060010190602001808311610b1957829003601f168201915b505050505081526020016007820160009054906101000a900460ff161515151581525050838581518110610b6d57610b6c611908565b5b60200260200101819052508380610b83906115e1565b9450508060020160009054906101000a900473ffffffffffffffffffffffffffffffffffffffff1673ffffffffffffffffffffffffffffffffffffffff168160010160009054906101000a900473ffffffffffffffffffffffffffffffffffffffff1673ffffffffffffffffffffffffffffffffffffffff167f901b4405f4d19b9b819ee76de056a3019c93aa311c6a1f300482729e45deb0ae8360000154846003018560040154866005015487600601604051610c459594939291906119bb565b60405180910390a35b508080610c5a906115e1565b915050610890565b508092505050919050565b60405180610100016040528060008152602001600073ffffffffffffffffffffffffffffffffffffffff168152602001600073ffffffffffffffffffffffffffffffffffffffff168152602001606081526020016000815260200160008152602001606081526020016000151581525090565b6000604051905090565b600080fd5b600080fd5b6000819050919050565b610d0781610cf4565b8114610d1257600080fd5b50565b600081359050610d2481610cfe565b92915050565b600060208284031215610d4057610d3f610cea565b5b6000610d4e84828501610d15565b91505092915050565b600073ffffffffffffffffffffffffffffffffffffffff82169050919050565b6000610d8282610d57565b9050919050565b610d9281610d77565b8114610d9d57600080fd5b50565b600081359050610daf81610d89565b92915050565b60008060408385031215610dcc57610dcb610cea565b5b6000610dda85828601610da0565b9250506020610deb85828601610d15565b9150509250929050565b610dfe81610cf4565b82525050565b610e0d81610d77565b82525050565b6000610e1e82610d57565b9050919050565b610e2e81610e13565b82525050565b600081519050919050565b600082825260208201905092915050565b60005b83811015610e6e578082015181840152602081019050610e53565b60008484015250505050565b6000601f19601f8301169050919050565b6000610e9682610e34565b610ea08185610e3f565b9350610eb0818560208601610e50565b610eb981610e7a565b840191505092915050565b60008115159050919050565b610ed981610ec4565b82525050565b600061010082019050610ef5600083018b610df5565b610f02602083018a610e04565b610f0f6040830189610e25565b8181036060830152610f218188610e8b565b9050610f306080830187610df5565b610f3d60a0830186610df5565b81810360c0830152610f4f8185610e8b565b9050610f5e60e0830184610ed0565b9998505050505050505050565b610f7481610e13565b8114610f7f57600080fd5b50565b600081359050610f9181610f6b565b92915050565b600080fd5b600080fd5b7f4e487b7100000000000000000000000000000000000000000000000000000000600052604160045260246000fd5b610fd982610e7a565b810181811067ffffffffffffffff82111715610ff857610ff7610fa1565b5b80604052505050565b600061100b610ce0565b90506110178282610fd0565b919050565b600067ffffffffffffffff82111561103757611036610fa1565b5b61104082610e7a565b9050602081019050919050565b82818337600083830152505050565b600061106f61106a8461101c565b611001565b90508281526020810184848401111561108b5761108a610f9c565b5b61109684828561104d565b509392505050565b600082601f8301126110b3576110b2610f97565b5b81356110c384826020860161105c565b91505092915050565b600080600080600060a086880312156110e8576110e7610cea565b5b60006110f688828901610f82565b955050602086013567ffffffffffffffff81111561111757611116610cef565b5b6111238882890161109e565b945050604061113488828901610d15565b935050606061114588828901610d15565b925050608086013567ffffffffffffffff81111561116657611165610cef565b5b6111728882890161109e565b9150509295509295909350565b60006020820190506111946000830184610df5565b92915050565b6000602082840312156111b0576111af610cea565b5b60006111be84828501610da0565b91505092915050565b600081519050919050565b600082825260208201905092915050565b6000819050602082019050919050565b6111fc81610cf4565b82525050565b61120b81610d77565b82525050565b61121a81610e13565b82525050565b600082825260208201905092915050565b600061123c82610e34565b6112468185611220565b9350611256818560208601610e50565b61125f81610e7a565b840191505092915050565b61127381610ec4565b82525050565b60006101008301600083015161129260008601826111f3565b5060208301516112a56020860182611202565b5060408301516112b86040860182611211565b50606083015184820360608601526112d08282611231565b91505060808301516112e560808601826111f3565b5060a08301516112f860a08601826111f3565b5060c083015184820360c08601526113108282611231565b91505060e083015161132560e086018261126a565b508091505092915050565b600061133c8383611279565b905092915050565b6000602082019050919050565b600061135c826111c7565b61136681856111d2565b935083602082028501611378856111e3565b8060005b858110156113b457848403895281516113958582611330565b94506113a083611344565b925060208a0199505060018101905061137c565b50829750879550505050505092915050565b600060208201905081810360008301526113e08184611351565b905092915050565b7f4f6e6c792074686520757365722063616e206d616b6520746865207061796d6560008201527f6e74000000000000000000000000000000000000000000000000000000000000602082015250565b6000611444602283610e3f565b915061144f826113e8565b604082019050919050565b6000602082019050818103600083015261147381611437565b9050919050565b7f496e73756666696369656e742045746865722073656e74000000000000000000600082015250565b60006114b0601783610e3f565b91506114bb8261147a565b602082019050919050565b600060208201905081810360008301526114df816114a3565b9050919050565b7f5061796d656e7420616c7265616479206d616465000000000000000000000000600082015250565b600061151c601483610e3f565b9150611527826114e6565b602082019050919050565b6000602082019050818103600083015261154b8161150f565b9050919050565b7f4e487b7100000000000000000000000000000000000000000000000000000000600052602260045260246000fd5b6000600282049050600182168061159957607f821691505b6020821081036115ac576115ab611552565b5b50919050565b7f4e487b7100000000000000000000000000000000000000000000000000000000600052601160045260246000fd5b60006115ec82610cf4565b91507fffffffffffffffffffffffffffffffffffffffffffffffffffffffffffffffff820361161e5761161d6115b2565b5b600182019050919050565b60008190508160005260206000209050919050565b60006020601f8301049050919050565b600082821b905092915050565b60006008830261168b7fffffffffffffffffffffffffffffffffffffffffffffffffffffffffffffffff8261164e565b611695868361164e565b95508019841693508086168417925050509392505050565b6000819050919050565b60006116d26116cd6116c884610cf4565b6116ad565b610cf4565b9050919050565b6000819050919050565b6116ec836116b7565b6117006116f8826116d9565b84845461165b565b825550505050565b600090565b611715611708565b6117208184846116e3565b505050565b5b818110156117445761173960008261170d565b600181019050611726565b5050565b601f8211156117895761175a81611629565b6117638461163e565b81016020851015611772578190505b61178661177e8561163e565b830182611725565b50505b505050565b600082821c905092915050565b60006117ac6000198460080261178e565b1980831691505092915050565b60006117c5838361179b565b9150826002028217905092915050565b6117de82610e34565b67ffffffffffffffff8111156117f7576117f6610fa1565b5b6118018254611581565b61180c828285611748565b600060209050601f83116001811461183f576000841561182d578287015190505b61183785826117b9565b86555061189f565b601f19841661184d86611629565b60005b8281101561187557848901518255600182019150602085019450602081019050611850565b86831015611892578489015161188e601f89168261179b565b8355505b6001600288020188555050505b505050505050565b600060a0820190506118bc6000830188610df5565b81810360208301526118ce8187610e8b565b90506118dd6040830186610df5565b6118ea6060830185610df5565b81810360808301526118fc8184610e8b565b90509695505050505050565b7f4e487b7100000000000000000000000000000000000000000000000000000000600052603260045260246000fd5b6000815461194481611581565b61194e8186610e3f565b94506001821660008114611969576001811461197f576119b2565b60ff1983168652811515602002860193506119b2565b61198885611629565b60005b838110156119aa5781548189015260018201915060208101905061198b565b808801955050505b50505092915050565b600060a0820190506119d06000830188610df5565b81810360208301526119e28187611937565b90506119f16040830186610df5565b6119fe6060830185610df5565b8181036080830152611a108184611937565b9050969550505050505056fea2646970667358221220b88f86520fde20543c86aa844952c4b8ba10145e66c2c6cc0137f249a4c3a8c464736f6c63430008130033",
  "linkReferences": {},
  "deployedLinkReferences": {}
}